:020000040800F2
:10000000102A0020650200081B3B0008F92E00089A
:10001000193B000863060008614500080000000065
:100020000000000000000000000000001B3C000871
:100030008D08000800000000193C0008D93C0008A9
:100040007F0200087F0200087F0200087F0200088C
:100050007F0200087F0200087F0200087F0200087C
:100060007F0200087F0200087F0200087F0200086C
:100070007F0200087F0200087F0200087F0200085C
:100080007F0200087F0200087F0200087F0200084C
:100090007F0200087F0200087F0200087F0200083C
:1000A0007F0200088D3D00087F0200087F020008E3
:1000B0007F0200087F0200087F0200087F0200081C
:1000C000FD2E00087F0200087F0200087F02000862
:1000D0007F020008494500087F0200087F020008EF
:1000E0007F0200087F0200087F0200087F020008EC
:1000F0007F0200087F0200087F0200087F020008DC
:100100007F0200087F0200087F0200087F020008CB
:100110007F0200087F020008993D00087F02000866
:100120007F0200088D070008C50700087F0200084D
:100130007F02000800000000000000007F020008AD
:100140007F0200087F0200087F0200087F0200088B
:100150007F020008D1070008DD07000855450008A8
:100160007F0200087F0200087F0200087F0200086B
:100170007F0200087F0200087F02000800000000E4
:10018000000000007F0200080000000000000000E6
:100190007F02000800000000000000007F0200084D
:1001A0000000000000000000000000007F020008C6
:1001B0007F0200087F0200087F0200087F0200081B
:1001C0007F02000800F002F800F03CF80AA090E876
:1001D000000C82448344AAF10107DA4501D100F002
:1001E00031F8AFF2090EBAE80F0013F0010F18BF93
:1001F000FB1A43F001031847D4460000F446000000
:10020000103A24BF78C878C1FAD8520724BF30C842
:1002100030C144BF04680C60704700000023002414
:1002200000250026103A28BF78C1FBD8520728BF06
:1002300030C148BF0B6070471FB504F0B7FA1FBD4F
:1002400010B510BD00F0D8F91146FFF7F5FF04F026
:10025000F9F900F0F6F903B4FFF7F2FF03BC00F080
:10026000F9F900000948804709480047FEE7FEE722
:10027000FEE7FEE7FEE7FEE7FEE7FEE7FEE7FEE756
:1002800004480549054A064B704700007D3D0008BB
:10029000C501000810240020102A0020102600208C
:1002A0001026002053EA020C00F069802DE9F04B83
:1002B0004FF00006002B1FBFB3FA83F503FA05F4D5
:1002C00024FA05F65E4012BF1643B2FA82F502FA2E
:1002D00005F4C5F120051EBF22FA05FC44EA0C0412
:1002E000203556EA044C4FEA144418BF641C4FF002
:1002F00000084FF00009904271EB030C39D300293C
:1003000019BFB1FA81F701FA07F6B0FA80F700FADF
:1003100007F6C7F120071EBF20FA07FC46EA0C06C5
:100320002037B6FBF4FCA7EB0507103F07F01F0BC7
:10033000CBF120060CFA0BFB2CFA06F644BFB346B1
:100340000026202FA4BF5E464FF0000B5BEA060C90
:1003500008BF4FF0010B19EB0B09ABFB027C48EB1C
:100360000608C01B06FB02CC0BFB03CC71EB0C0197
:10037000C1E70B46024641464846BDE8F08B13B53F
:100380004FF000004FF00001AFF30080BDE81C40CB
:100390007047431A28BF9A4240F27280032A1044E1
:1003A000114440F2268010F0030F1EBF11F8013DEA
:1003B000521E00F8013D10F0030F7FF4F6AF11F06C
:1003C000030300F0B580083AC0F00B8051F8043DFB
:1003D000083A51F804CD40F8043D40F804CDFFF749
:1003E000F3BF121D5CBF51F8043D40F8043DAFF36C
:1003F0000080D20724BF11F8013D11F801CD48BF9C
:1004000011F8012C24BF00F8013D00F801CD48BFD0
:1004100000F8012C70474FF0000200B513469446D7
:100420009646203922BFA0E80C50A0E80C50B1F14C
:100430002001BFF4F7AF090728BFA0E80C5048BF60
:100440000CC05DF804EB890028BF40F8042B08BFFE
:10045000704748BF20F8022B11F0804F18BF00F8FA
:10046000012B704770477047704710B500F08AF84D
:10047000006810BD10B5044600F084F8046010BD9B
:10048000032A40F2308010F0030C00F0158011F8C0
:10049000013BBCF1020F624498BF11F801CB00F898
:1004A000013B38BF11F8013BA2F1040298BF00F8EC
:1004B00001CB38BF00F8013B11F0030300F0668068
:1004C000083AC0F0088051F8043B083A51F804CBD0
:1004D000A0E80810F5E7121D5CBF51F8043B40F896
:1004E000043BAFF30080D20724BF11F8013B11F8A1
:1004F00001CB48BF11F8012B24BF00F8013B00F8E5
:1005000001CB48BF00F8012B7047431A28BF9A421D
:1005100040F23C80104410F0030F11441EBF11F84C
:10052000013D521E00F8013D10F0030F7FF4F6AFBD
:10053000103AC0F00A8010B531E91850103A20E99D
:100540001850BFF4F9AFBDE81040530724BF31E99C
:10055000081020E9081044BF51F8043D40F8043D5C
:1005600012F0030F08BF7047D20728BF31F8023DD1
:1005700048BF11F8012C28BF20F8023D48BF00F801
:10058000012C704700487047B023002010B5203A76
:10059000C0F00B80B1E81850203AA0E81850B1E83C
:1005A0001850A0E81850BFF4F5AF5FEA027C24BFF2
:1005B000B1E81850A0E8185044BF18C918C0BDE8E9
:1005C00010405FEA827C24BF51F8043B40F8043BB2
:1005D00008BF7047D20728BF31F8023B48BF11F867
:1005E000012B28BF20F8023B48BF00F8012B7047C1
:1005F00000487047B02300207546FFF7F9FFAE466C
:1006000005006946534620F00700854618B020B51E
:10061000FFF736FEBDE820404FF000064FF0000720
:100620004FF000084FF0000B21F00701AC46ACE89A
:10063000C009ACE8C009ACE8C009ACE8C0098D4607
:10064000704710B50446AFF300802046BDE8104067
:10065000FFF701BE01491820ABBEFEE726000200ED
:100660007047FEE710B52DED028B00F091FC234C96
:100670009FED230A616B59B3411A00EE901ADFED2A
:10068000211AB8EE601AC1EE210A00BFF5EEC00AC9
:10069000F1EE10FA01D8F0EE400A6063B4F90C00F4
:1006A000DFED191A00EE100A1849B8EEC00A80EE04
:1006B000211A94ED070A01EE200ADFED150A10EE6B
:1006C000100A84ED070A884205DB03F05AFF0FE0A9
:1006D000F0EE400ADAE7B5EEC00AF1EE10FA09D200
:1006E000B0EEC00AB0EE608A03F04BFF38EE400A6D
:1006F00084ED070ABDEC028B10BD00000000002055
:100700000AD7A33C00007A44000083420000B443AF
:100710000000B443F0B54FF4AF73994200D91946C5
:100720009A4200D91A46184B00244FF48C761D6863
:10073000062817D2DFE800F003090F16171F6C63B5
:10074000186884631868C46312E06C631868816376
:100750001868C2630CE06963186884631868C4632E
:1007600018680264F0BD6E63186884631868C66315
:1007700018680464F0BD6C63186886631868C46305
:1007800018680664F0BD0000C820002010B50B48B2
:1007900001F0CAFB0A4800F0D7F8094801680A6866
:1007A00022F010020A6001680A6822F008020A605A
:1007B0000068016821F00401016010BD38200020AC
:1007C000F0220020014800F0BFB8000030220020D5
:1007D000014800F0B9B8000050230020014800F0A3
:1007E000B3B800009022002001681823CAB2103A62
:1007F000B2FBF3F2054B6FF30901032A9B5CC3655F
:1008000000D9091D8165084670470000AC48000802
:1008100010B5014600208B698A6A4FF0C07453B14D
:10082000B3F5005F15D072B1012A0CD0022A0AD0AC
:10083000032A09D104E01AB1012A06D0022A03D101
:10084000C96AC90100D5012010BDC96AA142FAD008
:1008500010BD002AF7D0012AF2D0022AF3D0032AD1
:10086000F3D010BD30B50468256825F480252560D7
:10087000046863608368402B036803D09960006854
:10088000C26030BD9A600068C16030BD704772B60A
:10089000FEE72DE9F0410446876D00F079FB06463E
:1008A00094F835000025022806D08020606584F881
:1008B00034500120BDE8F0812068016821F0160164
:1008C00001602068416921F080014161206C08B914
:1008D000A06C20B12068016821F008010160206847
:1008E000016821F0010101600CE000F051FB801B68
:1008F000052807D920206065032084F8350084F896
:100900003450D7E720680068C007EED194F85C1037
:100910003F208840B860012084F8350084F83450C6
:100920000020C7E790F83510022903D080214165E7
:1009300001207047052180F835100068016821F01A
:1009400001010160002070472DE9F84304464FF093
:100950000009CDF8009063484FF41651A56D00686A
:10096000B0FBF1F72E6894F85C10082000FA01F152
:1009700031420FD021680A6852070BD50A6822F06D
:1009800004020A6094F85C108840A860606D40F032
:100990000100606594F85C104FF0010808FA01F05E
:1009A000304208D021684969090604D5A860606D05
:1009B00040F00200606594F85C10042088403042EA
:1009C00008D021680968890704D5A860606D40F0E7
:1009D0000400606594F85C1010208840304218D004
:1009E00021680968090714D5A860206801684903CF
:1009F00004D50068000308D5A16C07E00168C905AB
:100A000003D4016821F008010160216C09B120467E
:100A1000884794F85C1020208840304231D021680B
:100A20000968C9062DD5A86094F835000528206806
:100A3000016806D0490347D5006800031DD4616CE6
:100A40001CE021F0160101602068416921F080015D
:100A50004161206C08B9A06C20B12068016821F0C8
:100A60000801016094F85C103F208840A86084F879
:100A7000358084F83490216D1FE0E16B09B1204688
:100A80008847606D00282BD0606DC00714D005200A
:100A900084F835002068016821F0010101600098A8
:100AA000401C0090B84203D820680068C007F6D107
:100AB00084F8358084F83490E16C002910D001B0BE
:100AC0002046BDE8F04308470168C905D5D4016850
:100AD00021F01001016084F8358084F83490CCE76F
:100AE000BDE8F8834C0000202DE9F041044600F0F9
:100AF0004FFA06465CB1022084F83500002584F8E0
:100B000034502068016821F0010101600DE00120EE
:100B1000BDE8F08100F03CFA801B052805D92020B3
:100B20006065032084F83500F2E720680068C0079C
:100B3000F0D12268116820480140D4E9010318432C
:100B4000D4E903363343184363691843A369184350
:100B5000E3691843236A18430843616A042903D1EF
:100B6000D4E90B1319430843106020684069666A92
:100B700020F0070130460E43012704280CD1A06A5B
:100B80000643E06A40B12046FFF742FE20B1402014
:100B9000606584F83570BAE7206846612046FFF743
:100BA00023FE94F85C203F2191408160656584F8C4
:100BB00035700020ACE700003F8010F02DE9F041D7
:100BC0000446866D90F83400002501280DD00120E0
:100BD00084F8340094F835700020012F07D084F891
:100BE000340002252846BDE8F0810220FBE70227F9
:100BF00084F8357060652046FFF734FE94F85C1089
:100C00003F208840B0602068016841F01601016013
:100C1000206C20B12068016841F008010160206863
:100C2000016841F001010160DCE7000070B5044695
:100C300000F0AEF90546601C02D004480078044478
:100C400000F0A6F9401BA042FAD370BD400000207E
:100C50002DE9F04F0022DFF82CB101264FF00F09EB
:100C600006FA02F401EA0403A3427DD122F003074D
:100C70005F44D7F8088895074FEA157C09FA0CFA03
:100C80000AEA0805DFF80081404502D14FF000086C
:100C90002BE0DFF8F880404502D14FF0010824E056
:100CA000DFF8EC80404502D14FF002081DE0DFF88C
:100CB000E480404502D14FF0030816E0DFF8D88009
:100CC000404502D14FF004080FE0DFF8D0804045E6
:100CD00002D14FF0050808E0DFF8C480404502D19A
:100CE0004FF0060801E04FF0070808FA0CF8A84595
:100CF00022D12C4DD5F800C02CEA030CC5F800C059
:100D00002D1DD5F800C02CEA030CC5F800C0254DF8
:100D10000C35D5F800C02CEA030CC5F800C02D1F17
:100D2000D5F800C02CEA030CC5F800C0D7F8085865
:100D300025EA0A05C7F80858056857000323BB4091
:100D40009D430560D50800EB8507D7F820C05507FF
:100D50004FEAD56809FA08F52CEA050CC7F820C057
:100D6000C5689D43C56000E005E04568A543456052
:100D700084689C438460521C102AFFF471AFBDE864
:100D8000F08F0000003001400000024000040240EB
:100D900000080240000C0240001002400014024013
:100DA00000180240003C01402DE9F84FDFF8ACA1EB
:100DB0000022012403254FF00F090AF1040BAAF1C8
:100DC000040E00BF0B6804FA02F63340B3426ED142
:100DD0000F7907F00307012F01D0022F16D1876882
:100DE0004FEA420805FA08FC27EA0C07D1F80CC0C4
:100DF0000CFA08FC4CEA070CC0F808C04768B74377
:100E00000E79C6F3001696403E4346600E79F643CF
:100E1000B6070AD0C6684FEA420C05FA0CF7BE4383
:100E20008F6807FA0CF73743C7600E7906F00306A0
:100E3000022E10D1D60800EB8608D8F8206057079C
:100E40004FEAD76C09FA0CF7BE430F6907FA0CF7A3
:100E50003743C8F8207006684FEA420C05FA0CF7D1
:100E6000BE430F7907F0030707FA0CF73743076013
:100E70004E6816F4403F6BD0394E376847F48047D0
:100E80003760366822F0030706F480460096354E38
:100E900007EB060CDCF8086897074FEA177809FAA1
:100EA00008F7BE43304FB84202D100271FE04FE0A1
:100EB0002E4FB84201D1012719E02D4FB84201D180
:100EC000022714E02B4FB84201D103270FE02A4F2D
:100ED000B84201D104270AE0284FB84201D10527C2
:100EE00005E0274FB84201D1062700E0072707FA9F
:100EF00008F73743CCF80878DAF800605746D1F89D
:100F000004C09E435FEACC2C00D51E433E60DBF854
:100F100000605F46D1F804C09E435FEA8C2C00D588
:100F20001E433E60DEF800607746D1F804C09E4361
:100F30005FEA8C3C00D51E433E60084F083F3E6888
:100F4000D1F804C09E435FEACC3C00D51E433E600E
:100F5000521C102AFFF436AFBDE8F88F083C014060
:100F600044380240003001400000024000040240CA
:100F700000080240000C0240001002400014024031
:100F8000001802400AB1816170470904FBE70000C4
:100F9000014880687047000040000020704710B58D
:100FA000040013D0242084F83D002068016821F05B
:100FB00001010160204600F0E3FA0020206484F87B
:100FC0003D0044F8300FA073207310BD012010BD08
:100FD0002DE9F041016804464A694E6890F83E00E8
:100FE0000025D743FA0506D4F243D20503D46FF4A3
:100FF000807201254A61B90508D4F143C90505D4B9
:1010000022686FF4007145F002055161790525D41D
:10101000F143C90522D4638D94F83D10226B20283A
:1010200008D13BB9212910D029290ED0282901D176
:10103000212A0AD022686FF48061516145F00405CD
:10104000102806D0402804D008E0204602F058F9C5
:1010500004E02068016841F400710160380508D49B
:10106000F043C00505D421686FF4006045F0080521
:101070004861002D07D0206C284320642046BDE83D
:10108000F04101F0A7BFBDE8F081000010B50446B3
:101090000068084988420CD12046FFF780FF08B15C
:1010A00072B6FEE7204600F00BF8002801D072B6B9
:1010B000FEE710BD0054004090F83D00704700006E
:1010C00070B5040025D094F83D00002520B984F8BF
:1010D0003C50204600F074FA242084F83D0020683B
:1010E000016821F0010101602068016841F40041BC
:1010F00001602068016821F40041016000F01EFCDD
:101100004D4A6168914201D84C4900E04C498842FF
:1011100001D2012070BD4B492368B0FBF1F15E683C
:1011200026F03F060E435E606368934206D94FF493
:10113000967359434FF47A73B1FBF3F12368491C5A
:101140001E6A26F03F06314319626168914210D849
:101150004900401EB0FBF1F2521CC2F30B02042AFC
:1011600001D2042022E0B0FBF1F0401CC0F30B00E0
:101170001CE0A268F2B301EBC10303EB0116431EAE
:10118000B3FBF6F35B1C43F480431B0549D092B3D9
:1011900001EBC10202EB0111401EB0FBF1F0401C5B
:1011A000C0F30B0040F4804040F400402168CA695D
:1011B0004CF6FF739A431043C861D4E9071001430A
:1011C0002068026822F0C00211430160D4E90301E3
:1011D00001432068826848F2FF339A4311438160DB
:1011E000D4E9050108432168CA6822F0FF021043D0
:1011F000C86001E00EE016E02068016841F00101DE
:1012000001602564202084F83D00256384F83E5069
:10121000002070BD01EB4106431EB3FBF6F35B1CDF
:10122000B3E70120C2E701EB4101401EB0FBF1F042
:10123000401CC0F30B00B7E7A086010080841E00AD
:1012400000093D0040420F00704700002DE9FF4FAC
:1012500083B09A46DDE9118793460446DDF8409055
:10126000FFF796FE054694F83D00202870D119231B
:10127000012274492046009502F0B6F80028F5D105
:1012800094F83C00012863D0012084F83C002068D9
:101290000168C90703D1016841F0010101602068BC
:1012A000016821F400610160222084F83D004020A3
:1012B00084F83E0000262664C4F82490A4F82A800E
:1012C000608D20856048E062CDE9007553465A463E
:1012D0002046049901F042FF002879D1208DD0B139
:1012E000012821D00228206824D04169806900901B
:1012F000208D032866D801282BD0544902283B466C
:101300004FF00002009557D08846204602F06CF856
:1013100000285DD13AE02068416981690091016847
:1013200041F4007101607DE02068016821F4806172
:101330000160F0E7016821F48061016020680168C4
:1013400041F400610160206841698069009069E0B2
:1013500075E02A463946204602F0ECF888BB54E096
:101360002068016841F40071016020680069616AC9
:101370000870606A401C6062218D491E2185618D64
:10138000491E618521680969017042E02068016891
:1013900021F48061016020680069616A0870606AF8
:1013A000401C6062208D401E2085608D401E60853F
:1013B0003B46002241460095204602F015F800B950
:1013C000CEE705E02A463946204602F0B3F818B1C8
:1013D000012007B0BDE8F08F20680069616A0870DD
:1013E000606A401C6062208D401E81B22185608D44
:1013F000401E608520684269D243520712D40329F7
:1014000003D1016821F48061016020680069616A8C
:101410000870606A401C6062208D401E2085608DCF
:10142000401E6085208D00287FF462AF202084F864
:101430003D0084F83E6084F83C600020C9E702204B
:10144000C7E70000020010000000FFFF04000100D9
:101450002DE9FF4F83B09A46DDE911979346044684
:10146000DDF84080FFF794FD054694F83D00202804
:101470007FD11923012240492046009501F0B4FF95
:10148000002876D194F83C00012872D0012084F81D
:101490003C0020680168C90703D1016841F00101DF
:1014A00001602068016821F400610160212084F856
:1014B0003D00402084F83E0000262664C4F82480C5
:1014C000A4F82A90608D20852C48E062CDE9007553
:1014D00053465A462046049901F0BEFE70B930E0EA
:1014E0002A463946204602F05DF858B1206C04289F
:1014F00004D12068016841F400710160012007B047
:10150000BDE8F08F606A216800780861606A401C5D
:101510006062218D491E89B22185628D521E6285CD
:1015200022685369DB435B070BD469B10078106113
:10153000606A401C6062208D401E2085608D401EC8
:101540006085208D0028CBD12A463946204601F0FF
:101550001FFF0028CAD154F83D0B016841F4007107
:101560000160202004F81E09E67766770020C6E7B0
:10157000FFE70220C3E70000020010000000FFFFA9
:1015800010B500680B49884212D10B48016821F45C
:1015900000110160094C81152046FFF759FB6115C8
:1015A0002046FFF755FBBDE81040202000F0A4B80E
:1015B00010BD0000005400404038024000040240CA
:1015C00010B586B0044614216846FEF724FF18497A
:1015D0002068884229D117480021026842F002029F
:1015E0000260006800F0020005904FF44070009027
:1015F0001220CDE9010103200390042004906946E4
:101600000D48FFF7D1FB0B481030016841F4001181
:1016100001600068002200F40010059011462020AF
:1016200000F088F8202000F078F806B010BD000027
:10163000005400403038024000040240704700006F
:1016400002488168027811448160704740000020A0
:101650000B4810B5016841F400710160016841F464
:1016600080610160016841F480710160032000F035
:1016700081F8002000F006F800F024F8002010BDEA
:10168000003C024070B50D4D04464FF47A71287845
:10169000B1FBF0F00A490968B1FBF0F000F084FBFF
:1016A00048B9102C07D200222146501E00F042F803
:1016B00000206C6070BD012070BD00004000002063
:1016C0004C0000200B4882B0016841F48041016069
:1016D000006800F4804000900648001F016841F057
:1016E00080510160006800F080500090072002B037
:1016F00000F040B84438024000280DDB00F01F0223
:10170000012191404009800000F1E020C0F88011E3
:10171000BFF34F8FBFF36F8F7047002809DB00F0D6
:101720001F02012191404009800000F1E020C0F833
:1017300000117047F0B40E4B1B680C46C3F3022334
:10174000C3F10705042D00D90425191D072901D26D
:10175000002300E0DB1E012606FA05F1491E2140A8
:1017600099409E40761E16403143F0BC02F0F9BE0F
:101770000CED00E0064900F0070208684FF6FF0391
:10178000184040EA0220034A1043086070470000F6
:101790000CED00E00000FA052DE9F8431748016858
:1017A00041F0805101600068154F00F08050012623
:1017B00000903E64FFF7ECFB05464FF47A78114C3D
:1017C00005E000BFFFF7E4FB401B40450DD8606813
:1017D000C003F7D57E64FFF7DBFB0546464607E00E
:1017E000FFF7D6FB401BB04202D90320BDE8F883C7
:1017F00060688003F4D50020F8E70000403802401C
:1018000000000E42007000402DE9F0470E46050032
:1018100065D0DFF81481D8F80000F7B200F00F00AF
:10182000B04207D288F80070D8F8000000F00F002E
:10183000B04254D128683D4C810712D5400703D5EA
:10184000206840F4E05020602878000703D5206825
:1018500040F4604020602068A96820F0F000084350
:1018600020602878C0072DD03049686808390128E1
:1018700012D0022813D0032811D009688907002943
:101880002DDA216821F0030101432160FFF780FB7D
:10189000814641F2883A0EE009688903EFE709685A
:1018A0008901ECE7FFF774FBA0EB0901514502D970
:1018B0000320BDE8F0872068696800F00C00B0EBF9
:1018C000810FEFD1D8F80010404601F00F01B1426E
:1018D00007D90770006800F00F00B04201D0012066
:1018E000E7E72878400705D52068E96820F4E0504C
:1018F000084320602878000706D52068296920F46D
:10190000604040EAC100206000F038F82168084AD1
:10191000C1F30311515CC8400649086006480068DD
:10192000FFF7B0FE0020C4E7003C02400838024048
:10193000B44800084C000020440000200448054939
:1019400000680968044AC1F38221515CC8407047AD
:101950004C00002008380240C448000804480549EB
:1019600000680968044AC1F34231515CC8407047BD
:101970004C00002008380240C4480008224810B536
:10198000006810F00C02214815D04110042A11D033
:101990001D4C241F082A0FD00C2A0CD12268236862
:1019A00002F03F025B0221D52068C0F38810A0FB43
:1019B000010120E0084610BD2268236802F03F02C2
:1019C0005B0205D52068C0F38810A0FB010104E08C
:1019D0002168C1F38811A1FB00010023FEF762FC1E
:1019E0002168C1F30141491C49000AE02168C1F3A3
:1019F0008811A1FB00010023FEF754FC2168C1F30C
:101A00000271B0FBF1F010BD083802400024F40070
:101A10002DE9F84F04007DD0DFF878B32078ABF1E2
:101A20000407C007A7F1040550D0DBF800105846A2
:101A3000C1F3810101290FD00168C1F3810102299D
:101A400002D13968490207D40068C0F38100032835
:101A500009D13868400206D52868800336D5606809
:101A60000028D8D032E06068B0F5803F10D0B0F5E3
:101A7000A02F286810D020F480302860286820F437
:101A8000802028606068A0B1FFF782FA06460CE06B
:101A9000286840F48030F4E740F480202860F7E7BD
:101AA000FFF776FA801B642876D828688003F7D57C
:101AB0000CE0FFF76DFA064605E000BFFFF768FA95
:101AC000801B6428F0D828688003F7D42078DFF8DA
:101AD000C89280074FF0000A44D5DBF80010584642
:101AE00011F00C0F0FD00168C1F38101022902D15E
:101AF0003968490207D50068C0F3810003280AD17C
:101B00003868400207D42868800715D5E0680128A6
:101B100000D111E03AE1E068B0B10120C9F800005D
:101B2000FFF736FA064604E0FFF732FA801B022878
:101B3000BAD828688007F7D52868216920F0F8000E
:101B400040EAC10028600DE0C9F800A0FFF720FAC4
:101B5000064604E0FFF71CFA801B02281CD8286800
:101B60008007F7D42078000727D5DFF828828B4834
:101B7000616908F16C0881B101210160FFF708FA81
:101B8000064604E0FFF704FA801B022804D8D8F8C0
:101B900000008007F6D510E089E0C0F800A0FFF74C
:101BA000F7F9064605E000BFFFF7F2F9801B0228AF
:101BB0007DD8D8F800008007F6D42078400769D592
:101BC00074484FF0000838300068C0000BD47148EA
:101BD0003830016841F08051016000684FF0010821
:101BE00000F0805000906E4E3068C00511D430680F
:101BF00040F480703060FFF7CBF9009006E000BF42
:101C0000FFF7C6F90099401A022850D83068C0057D
:101C1000F6D5604EA068683601280FD005283068D8
:101C200010D020F001003060306820F004003060F7
:101C3000A068B8B1FFF7ACF900900FE0306840F051
:101C40000100F4E740F004003060F7E7FFF7A0F987
:101C50000099411A41F28830814264D83068800787
:101C6000F4D50EE0FFF794F9009007E0FFF790F944
:101C70000099411A41F28830814254D83068800777
:101C8000F4D4B8F1000F05D042483830016821F093
:101C900080510160A069A8B3DBF80010C1F3810195
:101CA000022947D00228C9F860A005D000E03AE038
:101CB000FFF76EF9044639E0FFF76AF9064604E0DB
:101CC000FFF766F9801B02282DD828688001F7D419
:101CD000F4E907010843E168324A490802EB01418F
:101CE000A26841EA82110843217C40EA0160217D1B
:101CF00040EA017038600120C9F86000FFF748F938
:101D0000044606E044E000BFFFF742F9001B02284A
:101D100009D828688001F7D53AE000BFFFF738F905
:101D2000001B022802D90320BDE8F88F2868800133
:101D3000F4D42DE00128F7D03868E26900F480017E
:101D4000914223D1226A00F03F0191421ED147F611
:101D5000C071626A0140B1EB821F17D1A26A4FF0D5
:101D6000FF3300F4403103EB5202B1EB024F0DD1CF
:101D700094F82C2000F07061B1EB026F06D194F85A
:101D8000301000F0E040B0EB017F01D00120CBE744
:101D90000020C9E70838024000004742800E474251
:101DA000007000400000FFFF10B5401EB0F1807FC2
:101DB00001D3012010BD4FF0E02460610F216017B6
:101DC00002F0CFFB0020A06107202061002010BDA1
:101DD0007047704770B590F83C20012A32D001243A
:101DE00080F83C40022280F83D2003685A689D68D4
:101DF00022F070060A6832435A60134B02689A4216
:101E000014D0B2F1804F11D0104B9A420ED0104B2B
:101E10009A420BD00F4B9A4208D00F4B9A4205D0F2
:101E20000E4B9A4202D00E4B9A4204D1496825F0DB
:101E300080031943916080F83D40002180F83C10F8
:101E4000084670BD022070BD000001400004004043
:101E500000080040000C0040000401400040014028
:101E60000018004010B5040003D094F83D0010B1F4
:101E700007E0012010BD002084F83C00204600F05F
:101E80001FF8022084F83D00211D206801F08AFF20
:101E9000012084F8460084F83E0084F83F0084F86E
:101EA000400084F8410084F8420084F8430084F83C
:101EB000440084F8450084F83D00002010BD000077
:101EC00008B50068154988420FD11548016841F0EE
:101ED000010101600068002200F00100009011463D
:101EE0001920FFF727FC192012E00E49884213D170
:101EF0000B48001F016841F01001016000680022DA
:101F000000F01000009011463620FFF713FC362039
:101F1000BDE80840FFF701BC08BD0000000001401B
:101F2000443802400010004090F83D10012901D0D3
:101F300001207047022180F83D100168CA6842F014
:101F40000102CA6000681149884214D0B0F1804F84
:101F500011D00F4988420ED00E4988420BD00E494D
:101F6000884208D00D49884205D00D49884202D0E8
:101F70000C49884204D1816801F00701062903D089
:101F8000016841F00101016000207047000001403C
:101F90000004004000080040000C00400004014024
:101FA000004001400018004070B5044690F83C0025
:101FB0000025012817D0012684F83C60022084F80F
:101FC0003D002068826822F0770222F47F4282601E
:101FD0000868502838D00DDC20284FD005DC90B39D
:101FE000102811D14AE0022070BD302846D0402888
:101FF0000AD13BE060282FD070280DD0B0F5805F6B
:1020000003D0B0F5005F12D0012584F83D600020B8
:1020100084F83C00284670BDCB68D1E901212068D6
:1020200001F035FF2068816841F0770109E0CB6855
:10203000D1E90121206801F02AFF2068816841F47C
:1020400080418160E1E719E0CA684968206801F0D1
:10205000F3FF5021206806E0CA684968206801F053
:10206000FCFF6021206801F01CFFCEE7CA684968C8
:10207000206801F0E1FF40212068F4E72268014672
:102080001046F0E72DE9F0410D46040003D094F826
:102090003D0018B108E00120BDE8F081002084F87F
:1020A0003C00204600F040F8022084F83D00206803
:1020B000816844F2070291438160211D206801F08C
:1020C00071FE226890689169166A2B68AF690343B4
:1020D00040F20330814341EA0721A868EF690843D1
:1020E0004FF6FC418843E96840EA0720014328692C
:1020F0002F6A000140EA0730084369686D6926F0DD
:10210000AA0646EA0515294393602268906154F8AF
:10211000460B0162012004F81F09E0752076E07685
:102120002077A0750020B7E730B587B004461421AA
:102130006846FEF770F922482468002220491038CA
:102140000223B4F1804F1FD01E4DAC421AD10C684F
:1021500044F004040C60096801F004010591016871
:1021600041F0020101600068694600F0020005903C
:10217000C0200090CDE901321348CDE9032300BF10
:10218000FEF712FE07B030BD0C6844F001040C608D
:10219000096801F001010591016841F00101016048
:1021A0000068694600F00100059048F202000090C6
:1021B000CDE901320120CDE903200448E0E7000029
:1021C0004038024000080040000402400000024085
:1021D00070B590F83E60044690F83F5090F8423059
:1021E00090F84320022021B104290ED0012E1BD1EA
:1021F00014E0012E18D1012B16D184F83E0084F88A
:10220000420001220021206820E0012D0CD1012A8A
:102210000AD184F83F0084F8430014E0012D03D173
:10222000012B01D1012A01D0012070BD84F83E00AC
:1022300084F83F0084F8420084F843000122002122
:10224000206801F017FE01220421206801F012FE2F
:102250002068016841F001010160002070BD7047F5
:102260002DE9F04104460068C66805694FF0000793
:10227000A90713D5B10711D5F91E016101202077F7
:10228000206880698007204602D0FFF7E8FF04E05D
:1022900000F0BAF8204600F05FF92777680716D5F6
:1022A000700714D521686FF00400086102202077C0
:1022B0002068806910F4407F204602D0FFF7CFFFEE
:1022C00004E000F0A1F8204600F046F9277728073F
:1022D00015D5300713D521686FF008000861042078
:1022E00020772068C0698007204602D0FFF7B7FF3B
:1022F00004E000F089F8204600F02EF92777E80680
:1023000016D5F00614D521686FF01000086108207A
:1023100020772068C06910F4407F204602D0FFF784
:102320009EFF04E000F070F8204600F015F92777D2
:10233000E80708D0F00706D021686FF001000861B7
:10234000204600F06FF9280608D5300606D521682A
:102350006FF0800008612046FFF73AFD680608D557
:10236000700606D521686FF040000861204600F035
:10237000ABF9A8060AD5B00608D521686FF0200091
:1023800008612046BDE8F041FFF723BDBDE8F081BC
:1023900030B587B0044614216846FEF73CF816496C
:1023A0002068884226D115480024016841F00101C7
:1023B0000160016801F001010591016841F002012D
:1023C00001600068022500F002000590C020009026
:1023D000CDE9015469460A48CDE90345FEF7E4FC1E
:1023E00003200090CDE9015469460648CDE9034534
:1023F000FEF7DAFC07B030BD000400403038024080
:102400000000024000040240704770B5044690F896
:102410003C0000260D4601280FD0012084F83C0026
:102420006AB1042A1DD0082A2FD00C2A3FD00126D9
:10243000002084F83C00304670BD022070BD20684A
:1024400001F038FD2068816941F008018161206850
:10245000816921F004018161206881692A69114341
:1024600011E0206801F056FD2068816941F40061A7
:1024700081612068816921F48061816120688169BE
:102480002A6941EA02218161D2E7206801F078FDE2
:102490002068C16941F00801C1612068C16921F06B
:1024A0000401C1612068C1692A69114311E02068F3
:1024B00001F09AFD2068C16941F40061C1612068A2
:1024C000C16921F48061C1612068C1692A6941EA5A
:1024D0000221C161ACE710B5040003D094F83D00BF
:1024E00010B107E0012010BD002084F83C00204618
:1024F00000F01EF8022084F83D00211D206801F044
:1025000051FC012084F8460084F83E0084F83F0026
:1025100084F8400084F8410084F8420084F84300C5
:1025200084F8440084F8450084F83D00002010BD84
:1025300008B500680649884208D10648016841F09C
:1025400002010160006800F00200009008BD000078
:1025500000040040403802407047000010B50446B7
:10256000022249B104290ED0082913D094F8410061
:10257000012816D0012010BD94F83E000128F9D1A1
:1025800084F83E200FE094F83F000128F2D184F84F
:102590003F2008E094F840000128EBD184F8402067
:1025A00001E084F841200122206801F063FC164913
:1025B0002068164A884201D0904203D1436C43F40C
:1025C000004343642068884213D0B0F1804F10D09C
:1025D0000F4988420DD00F4988420AD00E498842DF
:1025E00007D0904205D00D49884202D00C4988425C
:1025F00004D1816801F00701062903D0016841F088
:1026000001010160002010BD0000014000040140F4
:102610000004004000080040000C00400040014061
:10262000001800402DE9F04700682249884236D161
:10263000214CA079401CC0B2A0716179002926D13B
:102640000A2826D31D4A002502F62823A57128460C
:1026500002F6314603F2196C4FF4027900EB800167
:10266000575C11441F548F7891F80180FF0107EBEC
:10267000580726F81070CF78097907EB01212CF85C
:102680001010401C4845E9DB01F0C8FA6570BDE850
:10269000F08701206071BDE8F04701F0EDBA08490C
:1026A0008842F4D1074801F013F8BDE8F047FDF780
:1026B000D9BF00000000014000000020910A002066
:1026C00000100040E41F0020704770477047000072
:1026D000F8B5016804460868CA684B6910F00F0F26
:1026E0004FF0000559D003F0010602F4907737430C
:1026F00065D0C10705D0D10503D5616C41F001015A
:102700006164410705D5D90703D0616C41F002012E
:102710006164810705D5D90703D0616C41F00401DC
:102720006164010707D502F02001314303D0616CD9
:1027300041F008016164616C00293AD0800604D53B
:10274000900602D5204601F073FD20684069616C57
:10275000C0F38010090700D460B3204601F033FDB8
:1027600020684069400621D52068143050E8001FD9
:1027700021F0400140E80012002AF5D1E06BA8B139
:1027800072490165E06BFEF7CDF8002811D0E06BCF
:10279000016D01B0BDE8F040084783060FD59306F0
:1027A0000DD52046BDE8F84001F042BD2046FFF7B8
:1027B0008DFFF8BD2046FFF789FF6564F8BD266BE5
:1027C0002023012E7ED1C6067CD5D6067AD5086890
:1027D0004868009048694FF0020640064DD5E26B0C
:1027E000106840684FF480770004000C3AD0A18D47
:1027F000814237D9E085D069B8422DD020680C30AD
:1028000050E8001F21F4807140E80012002AF5D141
:102810002068143050E8001F21F0010140E8001248
:10282000002AF5D12068143050E8001F21F0400143
:1028300040E80012002AF5D184F842302563206870
:102840000C3050E8001F21F0100140E80012002A6F
:10285000F5D1E06BFEF71DF86663A08DE18D401A9F
:1028600081B206E0A18D8142A8D1D069B842A5D13C
:1028700066632046FFF729FFF8BDA08DE18D401A61
:1028800081B2E08D0028F7D00029F5D020680C3007
:1028900050E8002F22F4907240E80027002FF5D175
:1028A0002068143050E8002F22F0010240E8002791
:1028B000002FF5D184F84230256320680C3050E8B1
:1028C000002F00E006E022F0100240E80023002B79
:1028D000F3D1CDE705062BD5150629D594F841008F
:1028E0002128C9D1A068B0F5805F01D12069B0B1BD
:1028F000206A411C2162216800784860E08C401EFB
:102900000004000CE084B7D12068C16821F0800188
:10291000C1602068C16841F04001C160F8BD206A13
:102920000088C0F308004860206A801C2062E5E748
:102930004006F3D55006F1D5CA68204622F0400281
:10294000CA6084F8413000F025FAF8BD7F400008E5
:1029500070B5040004D094F84100002510B106E0E1
:10296000012070BD84F84050204600F023F8242058
:1029700084F841002068C16821F40051C1602046FC
:1029800001F0B8FC2068016921F4904101612068E0
:10299000416921F02A0141612068C16841F4005178
:1029A000C1606564202084F8410084F842006563BA
:1029B000002070BD2DE9F04387B00446142168461D
:1029C000FDF729FD5848DFF85CC1143827685649DF
:1029D00002220323002506154FF0400967454BD11D
:1029E0000F6847F010070F60096801F010010591AA
:1029F000016841F0010101600068694600F00100D2
:102A0000059058028DE825000720CDE9033047489E
:102A1000FEF7CAF9474F46484FF000683860C7E9EB
:102A20000185C7E903567D61BD61FD613D623846A0
:102A30007D62FEF759F808B1FDF729FFE763BC6333
:102A40003C4F3B4860377830C7E903567D61BD6134
:102A5000FD613D627D6287E801033846FEF744F878
:102A600008B1FDF714FFA763002211462520BC63BF
:102A7000FEF760FE252050E0DFF8BCC067454ED170
:102A80000F6847F020070F60096801F020010591E9
:102A9000016841F0040101600068694600F004002B
:102AA0000590C0208DE825000820CDE9033023489B
:102AB000FEF77AF91F4F1E48C037183838604FF0BC
:102AC0002068C7E90185C7E9035680157D61C7E91C
:102AD00006503D6238467D62FEF706F808B1FDF704
:102AE000D6FEE763BC63164F1148C7E903567D6104
:102AF000BD61FD613D6260307D6287E8010338465B
:102B0000FDF7F2FF08B1FDF7C2FEA76300221146F0
:102B10004720BC63FEF70EFE4720FEF7FEFD07B020
:102B2000BDE8F0830010014044380240000002403C
:102B3000406402403022002000140140000802409E
:102B40005023002090F84230202B01D00220704703
:102B500021B11AB10023036301F052BC0120704778
:102B600090F84230202B01D00220704721B11AB1D9
:102B70000023036301F094BC012070472DE9F0416C
:102B800000683349334A884219D110891146324CC2
:102B90008D78FF2805D810892118401C10810D70F0
:102BA00006E0FF22611C2C48FDF7F3FB84F8FF5080
:102BB00000F0B4FF27490122891C28481CE028495D
:102BC000884242D1107807281AD2D1791078214B47
:102BD00038330344401C107019701078072807D14F
:102BE000BDE8F04140F628221E491F48FFF7AABF62
:102BF000184901221C48C91DBDE8F041FFF7B0BFCC
:102C0000184B002003F6282403F6314504F2196618
:102C10004FF4027C00EB80015F5C194427548F78ED
:102C200091F801E0FF0107EB5E0725F81070CF78FF
:102C3000097907EB012126F81010401C6045E9DBFB
:102C40000120107100201070D2E7BDE8F081000073
:102C50000010014000000020E21E0020A021002002
:102C600000140140910A0020E821002070472DE95E
:102C7000F843044690F84100984616460D46202831
:102C800002D00220BDE8F88385B17EB100206064E7
:102C9000212084F84100FEF77BF9A6848146E68472
:102CA000A0682027B0F5805F02D003E00120E9E7AB
:102CB000206910B12E4600250EE000260CE0802190
:102CC000204601F008FCA8B9C6B116F8010B21682E
:102CD0004860E08C401EE084E08C4B464FF00002E0
:102CE000CDF800800028EAD14FF04001204601F0E5
:102CF000F2FB40B184F841700320C3E735F8020BC2
:102D0000C0F30800E3E784F841700020BAE7000050
:102D100070B5044690F84100202801D0022070BD13
:102D200001B3FAB12162A284E2840020606421230D
:102D300084F84130A56B144BEB63A56B134B2B64EC
:102D4000A56B134BEB64A36B186520681346A56B4A
:102D5000021D2846FDF732FF30B1102060642020AC
:102D600084F84100012070BD21686FF040000860C8
:102D70002068143050E8001F41F0800140E8001244
:102D8000002AF5D1002070BD7B410008BD4100083C
:102D90008D40000800680349884202D102490020A2
:102DA000487170470010014000000020704700008B
:102DB00030B5464C002594ED090A9FED451AB5EE55
:102DC000C00AF1EE10FA39D00120E07094ED090A42
:102DD000DFED400A20EE200ADFED3F1A3F49C0EE4A
:102DE000210A94ED070AD4ED0C1A30EE610ADFEDEA
:102DF0003C1A10EE100A884201D930EE210A3949F6
:102E000010EE100A884201DD30EE610AF0EEE01AA1
:102E1000B0EEC00AB4EEE10AF1EE10FA0BD2F5EE14
:102E2000C00A4FF48C71F1EE10FA0A4601DD04205D
:102E30003EE005203CE084ED091A3FE094ED080AED
:102E4000B5EEC00AF1EE10FA3ED00220E07094ED2B
:102E5000080ADFED251A2648F0EEC00A80EEA10A26
:102E6000DFED220A0068406A20EE200ABDEEC00AAB
:102E700010EE102AA16A401A00D540421D49096887
:102E8000496AE36AC91A00D54942084400EBD07088
:102E90004010904210DA94ED080A4FF4AF710A46E0
:102EA000B5EEC00AF1EE10FA01DD012000E00220CB
:102EB000BDE83040FDF72EBC84ED081A0022114613
:102EC0001046FDF727FCE57030BD00000000002033
:102ED0000000000000003443DB0F4940000034C311
:102EE0000000B44300003443BA1A513E008040440D
:102EF0008020002010210020FEE700000148FEF79E
:102F000067B80000E41F002038B5806B002190F8FE
:102F10003D202B4B46F2A8141B68B3FBF4F3C3EB24
:102F2000C30303EB830300933BB15B1E0093036871
:102F30001B689B0505D5009BF6E7036C43F0200357
:102F40000364436B03B1D963836B03B1D963036833
:102F50001C6824F480641C604185436B03B11965CF
:102F6000836B03B1196503681C6824F001041C60BD
:102F700090F83D402023602C0BD0282434EA020234
:102F80000FD080F83D3080F83E1000BFFEF77EF88D
:102F900038BD80F83D3080F83E100164FDF7FEFF3B
:102FA00038BD0268136843F00103136002681368B8
:102FB00043F480631360016380F83D40E6E700005E
:102FC0004C00002000684169C943090601D4002172
:102FD0000161704770B5044690F83D0094F83E10CA
:102FE000102901D0402906D1222804D121680A687D
:102FF00022F400620A60282131EA00024FF0000545
:103000004FF0200626D021684968090505D46028BC
:1030100003D084F83D6084F83E5025632068416801
:10302000090537D5416821F400614160606B90F873
:1030300035203C49012A11D00165606BFDF772FC17
:1030400038B32068016821F00101016084F83D6017
:10305000606B1CE0256384F83D10DFE7A06B016521
:10306000A06BFDF75FFCA0B120684169C943490628
:1030700005D40069616A0870606A401C606220685B
:10308000016821F00101016084F83D60A06B016DD1
:10309000884710E094F83D10602910D04169C94379
:1030A000490605D40069616A0870606A401C606264
:1030B0002046FDF7EBFF206CC1071CD115E084F81A
:1030C0003D6025644169C943490605D40069616AC8
:1030D0000870606A401C60622068016821F001018C
:1030E00001602046FDF75AFFE5E7810703D4410759
:1030F00001D4000704D52068416821F4E0614160F3
:1031000094F83D00216C49070BD5282809D10648C1
:10311000E062256384F83D6084F83E502046FEF767
:1031200093F870BD092F00080000FFFF01684A698D
:10313000D24352050FD46FF480624A61002140F8F7
:10314000301F202242738173026942F0040202613F
:103150000173012070470020704700002DE9F84FEF
:103160000446006889460B9D01689846174641F45D
:10317000806101602068016841F480710160009500
:103180004FF0011B0022594620460A9B00F02CF903
:103190004FF4007A40B120680068C00501D5C4F83A
:1031A00040A00320BDE8F88F216809F0FE00086107
:1031B0002B46284920460A9A00F05EF9F0BB2068A9
:1031C0004169806900902A4620460A9900F0EAF990
:1031D00040B1206C04283AD12068016841F40071A4
:1031E000016034E0FEB2B8F1010F09D02168380A5D
:1031F00008612A4620460A9900F0D4F90028E8D14F
:10320000206806612A4620460A9900F0CBF900287A
:10321000DFD12068016841F48071016000950022CF
:10322000594620460A9B00F0DFF80028B3D12168F8
:1032300009F0FF0040F00100086100E007E02B46C4
:10324000044920460A9A00F017F90028AAD0012064
:10325000A8E70000020001002DE9F84304460068D9
:103260000D46DDE9089701689846164641F48071DD
:1032700001604B4600224FF001112046009700F0FC
:10328000B3F848B120680068C00502D54FF400705B
:1032900020640320BDE8F883216805F0FE00086182
:1032A0003B464A461549204600F0E6F888B92068B2
:1032B0004169806900903A464946204600F072F91B
:1032C00048B1206C042804D12068016841F40071E1
:1032D00001600120DEE7F5B2B8F1010F09D02168E5
:1032E000300A08613A464946204600F05BF900285A
:1032F000E7D1206805610020CCE700000200010052
:103300002DE9F04190F83D300446C26A00212026A4
:103310001E4F00686FF48065082A01D0202A01D171
:10332000282B04D0212B17D04561BDE8F081E7623E
:10333000426822F4E06242602068456120680268C9
:1033400022F480620260216384F83D6084F83E10BC
:103350002046FDF779FFE8E7E7622122226384F83F
:103360003D6084F83E10416821F4E06141602068CE
:1033700045612068016821F4806101602046FFF703
:1033800021FE2046FEF75AF9CFE700000000FFFFBC
:1033900070B516460D4604461EE02046FFF7C6FEF1
:1033A00008B1012070BD681C16D0FDF7F1FD801B2F
:1033B000A84200D885B920684069C04340070BD5B2
:1033C000002044F8300F20216173A073216941F07F
:1033D000200121612073E4E720684069C043400771
:1033E000DBD4002070BD00002DE9F0479846174659
:1033F0000D460446C1F30746DDF820902AE000BFE1
:10340000B8F1FF3F26D0FDF7C3FDA0EB0901414510
:1034100002D8B8F1000F1DD12068012E16D08069A6
:1034200025EA00000004000C12D00020B84211D19F
:10343000002044F8300F20216173A073216941F00E
:103440002001216120730120BDE8F0874069E7E792
:103450000120EBE72068012E0AD0806925EA0000F0
:103460000004000C06D00020B842C9D00020EBE7D1
:103470004069F3E70120F7E72DE9F0479846164643
:103480000D4604464FF000094FF0200AC1F30747EC
:1034900023E020684069C043400515D420680168D6
:1034A00041F40071016021686FF480604861C4F8E4
:1034B000309084F83DA084F83E90216C41F00401E6
:1034C000216484F83C9021E0701C06D0FDF760FD7B
:1034D000A0EB0800B04203D816B1012F1FD021E0A5
:1034E0002068012F15D0806925EA00000004000C37
:1034F00018D000BF44F8309F84F80DA084F80E90D7
:10350000216941F02001216184F80C900120BDE87F
:10351000F087406925EA00000004000CEAD1206829
:10352000406901E02068806925EA00000004000C81
:10353000AFD1ECE72DE9F041002590460E46044658
:10354000202728E04069C043C0060CD454F8301B43
:103550006FF01000486144F810596777A577206A2A
:103560002062257714E0FDF713FDA0EB0800B042C0
:1035700000D886B920684069C04340060BD544F89E
:10358000305F6773A573206940F0200020612573C8
:103590000120BDE8F08120684169C9434906D1D4C2
:1035A0000020F6E770B516460D4604461EE020469C
:1035B000FFF7BCFD08B1012070BD681C16D0FDF7F7
:1035C000E7FC801BA84200D885B920684069C04349
:1035D00000060BD5002044F8300F20216173A07342
:1035E000216941F0200121612073E4E720684069EE
:1035F000C0430006DBD4002070BD00002DE9FF476A
:10360000002582462C4603AF4FF064084FF00209B4
:103610004FF4FA76CDE9007901234722D0215046B4
:10362000CDF80880FDF712FEBDF80C0040BA05FA8F
:1036300080F50320FDF7FAFA641CB442EADB95FB3F
:10364000F6F00249C881BDE8FF87000000000020B5
:103650002DE9F04186B08046012504A8CDE900059A
:1036600064242B467522D02102944046FDF7EEFDDE
:103670009DF81000702801D072B6FEE700208DF88A
:103680000C0003AE0096CDE9015401236B22D0213A
:103690004046FDF7DDFE6420FDF7C8FA08278DF8E7
:1036A0000C700096CDE9015401231B22D021404625
:1036B000FDF7CEFE8DF80C700096CDE90154012384
:1036C0001C22D0214046FDF7C3FE06B0BDE8F081C4
:1036D00010B588B00446FDF7EFFC202807D020463F
:1036E000FDF75DFC2046FDF7EBFC08B010BD642241
:1036F0000E2103A88DE8070001233B22D02120469C
:10370000FDF7A4FD0028F0D1BDF80C0041BA0C482B
:103710000182BDF80E1049BA4182BDF8101049BAB5
:103720008182BDF8141049BAC182BDF8161049BA99
:103730000183BDF81810C28949BA891A8181D4E77A
:1037400000000020154808B5016841F480010160BF
:103750000068002200F48000009011463920FDF737
:10376000E9FF3920FDF7D9FF002211463A20FDF785
:10377000E1FF3A20FDF7D1FF002211464520FDF779
:10378000D9FF4520FDF7C9FF002211464620FDF76D
:10379000D1FFBDE808404620FDF7BFBF30380240EA
:1037A00030B587B014216846FCF735FE2548002463
:1037B000016841F004010160016801F00401059114
:1037C000016841F080010160016801F0800105910C
:1037D000016841F001010160016801F001010591FA
:1037E000016841F0020101600068174D00F002001D
:1037F0000590002220212846FDF7C4FB4FF400501D
:1038000000904FF40410CDE9010469460F48FDF71C
:10381000CBFA082000900220CDE901040320039098
:103820000720049069462846FDF7BEFA2020009044
:103830000120CDE90104694628460394FDF7B4FA56
:1038400007B030BD3038024000000240000802409E
:103850000D4810B50B4901600C49416000214FF43F
:1038600080428160C0E9031241618161C1610162EE
:10387000FDF726FC002803D0BDE81040FDF707B88F
:1038800010BD000000540040E41F0020A08601008D
:1038900010B586B000241748009401940294039454
:1038A000049413490594016044F24F61C0E9011486
:1038B000C721C0E9031444618461FEF7D3FA08B15B
:1038C000FCF7E5FF4FF48050009069460948FEF789
:1038D0006BFB08B1FCF7DBFF049404A905480594D1
:1038E000FEF778FA002801D0FCF7D1FF06B010BD32
:1038F000000001403820002010B58CB0242168461B
:10390000FCF789FD0024144809944FF080410A9483
:10391000C0E90014611EC0E9024104618461012014
:10392000CDE90004CDE902040494CDE905400794F3
:10393000694609480894FEF7A5FB08B1FCF7A7FF04
:10394000099409A904480A94FEF744FA002801D012
:10395000FCF79DFF0CB010BD8020002010B58AB090
:10396000002407941C2168460894FCF754FD224863
:10397000204901605321C0E9011440F2E731C0E958
:1039800003148461FEF7A7FD08B1FCF780FF0794DC
:1039900007A919480894FEF71DFA08B1FCF777FF4C
:1039A0006020CDE900040294002269461248049484
:1039B000FEF72BFD08B1FCF76AFF042269460E48AA
:1039C000FEF723FD08B1FCF762FF082269460A48AA
:1039D000FEF71BFD08B1FCF75AFF0C2269460648AA
:1039E000FEF713FD08B1FCF752FF0348FEF7D0FCC9
:1039F0000AB010BD00040040C820002010B58CB0F3
:103A000024216846FCF707FD002415480994134952
:103A10000A94C0E900144FF6FF71C0E90241046145
:103A200084610120CDE90004CDE902040494CDE9CC
:103A30000540079469460A480894FEF723FB08B13D
:103A4000FCF725FF099409A905480A94FEF7C2F975
:103A5000002801D0FCF71BFF0CB010BD000800408F
:103A6000102100201CB500240E4800940C4901943C
:103A7000016042F22731C0E90114C7218461C160AD
:103A8000FEF7F0F908B1FCF702FF0094694605481B
:103A90000194FEF79FF9002801D0FCF7F8FE1CBD49
:103AA00000100040582100200C4810B50A49016060
:103AB0004FF461214160002181600C22C160C0E9A6
:103AC00004128161C161FEF743FF002803D0BDE805
:103AD0001040FCF7DCBE10BD00100140A02100200A
:103AE0000C4810B50A4901604FF4E1214160002102
:103AF00081600C22C160C0E904128161C161FEF7DE
:103B000027FF002803D0BDE81040FCF7C0BE10BD61
:103B100000140140E8210020FEE7FEE7F8B5384D2B
:103B2000384C05F112061FE030783146AA2802D140
:103B30004878552809D022893148711C1230521E0C
:103B4000FCF727FC2089401E0DE0A88AADF8000094
:103B50000A280DD022892A48B11C1230921EFCF787
:103B600018FC2089801E208120891028DCD2F8BD15
:103B7000288CADF80000E88A60819FED230A0022BE
:103B800084ED090A84ED080A11461046FCF7C2FDCF
:103B90001E4AA869E9691268526AA2621C4A126840
:103BA000526AE26294ED070A1A4A84ED0C0A00EEAA
:103BB000101AB0EEC00A10EE103A934204DD00EE87
:103BC000101A84ED080A0EE000EE100AB0EEC00AEA
:103BD00010EE101A914204DD00EE100A84ED090A7D
:103BE00001E00020E07022890549103A2231A1F15C
:103BF0001000FCF7CEFB208910382081F8BD0000B2
:103C0000D01E0020000000200000000080200020C6
:103C1000102100206F12833A70477047F0B41349A7
:103C20005520134C0870AA2048704FF402734B8043
:103C3000002004F2092504F2196600EB80020A4410
:103C4000275C177135F81070A2F8057036F81070FF
:103C5000401C80B2A2F807709842EED3F0BC40F648
:103C60002C2202490348FFF753B8000050000020FF
:103C7000B9140020A021002010B5124CFD202070A6
:103C8000DF206070FDF784F94FF47A714843C4F87F
:103C900002000D484189E180C17821720B49096811
:103CA000496AC4F809100A490968496AC4F80D103C
:103CB000C069C4F811002146BDE81040152205482E
:103CC000FFF726B87C0A002000000020802000209A
:103CD00010210020A0210020FDF7B2BC30B593B028
:103CE00034216846FCF797FB14210DA8FCF793FBE1
:103CF00020480025016841F080510160006800F013
:103D0000805012901C48016841F4404101600068F5
:103D1000022400F4404012900120039010200490EF
:103D2000009406940820CDE90750B420CDE9090499
:103D30000B9468460C94FDF76BFE08B172B6FEE773
:103D4000FDF72AFD08B172B6FEE70DA90F2081E844
:103D500031004FF4A05010904FF480501190052185
:103D60000DA8FDF751FD002801D072B6FEE713B093
:103D700030BD000040380240007000400248016839
:103D800041F470010160704788ED00E00148FEF7E2
:103D900067BA0000382000200148FEF761BA000031
:103DA00058210020F0B50268274B284D284E294F96
:103DB000294C4FF0804C984209D0604507D0A8426A
:103DC00005D0B04203D0B84201D0A04204D122F0C5
:103DD000700E4A6842EA0E0298421BD0604519D024
:103DE000A84217D0B04215D0B84213D0A04211D08B
:103DF0001A4DA8420ED01A4DA8420BD0194DA84218
:103E000008D0194DA84205D0184DA84202D0184D2F
:103E1000A84203D122F44075CA682A434D6922F0B2
:103E200080022A438D68C5620D688562984201D080
:103E3000A04201D109690163016841F004010160F8
:103E4000012141610260F0BD00000140000400401A
:103E500000080040000C0040000401400040014008
:103E6000004401400048014000180040001C004090
:103E70000020004010B501F01F030121046A9940A1
:103E80008C430462016A9A401143016210BD10B56F
:103E9000846842EA032224F47F440A432243826076
:103EA00010BD826822F070020A4342F0070181606F
:103EB00070470000F0B5036A026A22F00102026254
:103EC00042688469124E24F073050C682C4323F079
:103ED00002058B682B430D4DA84201D0B04205D19D
:103EE00023F00807CB683B4323F00403A84201D02A
:103EF000B04205D14D6922F4407215438A692A43C4
:103F000042608461496841630362F0BD0000014082
:103F100000040140F0B5026A036A23F01003036253
:103F2000436884690D6824F4E64444EA05248D68F6
:103F300022F0200242EA05120F4D104EA84201D095
:103F4000B04206D1CF6822F0800242EA071222F086
:103F50004002A84201D0B04207D14D6923F440632A
:103F600043EA85038D6943EA8503436084614968B8
:103F700081630262F0BD00000000014000040140C6
:103F8000F0B5026A036A23F4807303624368C4696C
:103F900022F4007224F073050C68124E2C438D68D5
:103FA00042EA05220E4DA84201D0B04206D1CF68A8
:103FB00022F4006242EA072222F48062A84201D081
:103FC000B04207D14D6923F4405343EA05138D698C
:103FD00043EA05134360C4614968C1630262F0BDEE
:103FE000000001400004014030B5046A026A22F476
:103FF000805202624268C3690D6823F4E64343EAD3
:1040000005238D6824F4005444EA0534084DA84281
:1040100002D0084DA84204D14D6922F4804242EA00
:1040200085124260C36149680164046230BD0000CA
:10403000000001400004014010B5036A046A24F046
:1040400001040462846924F0F00444EA021423F0B9
:104050000A020A438461026210BD10B5036A046A51
:1040600024F010040462846923F0A00324F4704453
:1040700044EA023243EA01118261016210BD10B5C7
:10408000806B0021C185FEF721FB10BD70B5846BEC
:104090002068406994F84110C0F3C0100025212920
:1040A00004D118B1E584204600F0B4F820684069D6
:1040B00094F84210C0F38010222904D118B1E5858C
:1040C000204600F080F8606C40F0100060642046EC
:1040D000FEF7FCFA70BD10B50146806B09680968EF
:1040E0004FF00002C9052ED4C28501680C3151E899
:1040F000003F23F4807341E80034002CF5D10168BF
:10410000143151E8003F23F0010341E80034002C52
:10411000F5D10168143151E8003F23F0400341E834
:104120000034002CF5D1202180F84210016B0129C8
:1041300009D101680C3151E8003F23F0100341E838
:104140000034002CF5D14263016B012902D0FEF747
:1041500015FD10BD818DFEF7B8FA10BD10B5806B4E
:1041600001214163016B012902D0FEF77FFD10BDE3
:10417000818D4908FEF7A9FA10BD10B50146806B84
:1041800009680968C90516D40021C1840168143181
:1041900051E8002F22F0800241E80023002BF5D1E6
:1041A00001680C3151E8002F42F0400241E8002341
:1041B000002BF5D110BDFEF7EDFD10BD10B5806BE5
:1041C000FEF7F4FD10BD01680C3151E8002F22F418
:1041D000907241E80023002BF5D10168143151E8B9
:1041E000002F22F0010241E80023002BF5D1016BE2
:1041F000012909D101680C3151E8002F22F0100289
:1042000041E80023002BF5D1202180F84210002145
:104210000163704701680C3151E8002F22F0C002A1
:1042200041E80023002BF5D1202180F84110704790
:1042300008B590F84210222901D0022008BD8268FA
:104240004FF480539A4201D1016921B1816A9A42A7
:104250001BD04AB10AE00268816A5268C2F30802C0
:104260000A80816A891C08E0026972B1026852689A
:1042700002F07F020A70816A491C8162C18D491E69
:104280000904090CC18503D01BE002685268F1E7FC
:104290000168CA6822F02002CA600168CA6822F474
:1042A0008072CA6001684A6922F001024A612021D5
:1042B00080F8421000214163026B012A03D0FEF70F
:1042C0005DFC002008BD016301680C3151E8002F3E
:1042D00022F0100241E80023002BF5D101680A68A2
:1042E000D20602D50A6849680091818DFEF7EDF982
:1042F000E7E7000070B5044600680169E26821F450
:104300004051114301612169A068E2690843616974
:10431000114308432168CA6849F20C639A43024377
:10432000CA6020684169A26921F44071114341616A
:1043300031492068884202D03049884202D1FDF7D5
:104340000DFB01E0FDF7FAFAE2690023192164256B
:104350003226B2F5004F626828D0A0FB0101930F0E
:104360009200FBF79FFF0146B0FBF5F06FF01802DB
:10437000504301EB800006EB0010B0FBF5F000F0BD
:10438000F002B1FBF5F002EB0012B1FBF5F06FF0BB
:104390001803584301EB800006EB0010B0FBF5F06A
:1043A00000F00F0021681044886070BDA0FB01017F
:1043B00092185B41FBF776FF0146B0FBF5F0020176
:1043C000B1FBF5F06FF01803584301EB800006EBEA
:1043D000C000B0FBF5F000F0F80002EB4002B1FBCA
:1043E000F5F0584301EB800006EBC000B0FBF5F0A0
:1043F00000F00700D6E70000001001400014014063
:1044000038B581620446828500201346606422220A
:1044100084F84220E56B1F4AEA63E56B1E4A2A6472
:10442000E56B1E4AEA64E26B10650A462168E06BA0
:10443000091DFCF7C3FB30B110206064202084F814
:104440004200012038BD2068016840680090206962
:1044500048B120680C3050E8001F41F4807140E8FA
:104460000012002AF5D12068143050E8001F41F0F6
:10447000010140E80012002AF5D12068143050E80C
:10448000001F41F0400140E80012002AF5D1002051
:1044900038BD0000D74000085D4100088D4000088D
:1044A00081628285C28500214164222180F8421008
:1044B000016921B10168CA6842F48072CA6001686A
:1044C0004A6942F001024A610068C16841F0200176
:1044D000C160002070472DE9F843984617460D4605
:1044E0000446089E24E0701C22D0FCF751FDA0EB8E
:1044F0000800B0421AD8CEB12068C168490717D564
:10450000802D15D0402D13D00168C94309070FD461
:1045100001680025406800902046FFF754FE0820FF
:10452000606484F840500120BDE8F8830320FBE775
:104530002068006835EA000004D00020B842D2D0DC
:104540000020F1E70120F9E70148FEF7C1B80000BB
:10455000A02100200148FEF7BBB80000E8210020A0
:10456000FEE70907090E002804DB00F1E02080F8CF
:104570000014704700F00F0000F1E02080F8141DD7
:10458000704710B52DED028BF0EE408A18EE900AC0
:10459000B0EE608A20F00040C0F1FF40C00F07D1AC
:1045A00018EE100A20F00040C0F1FF40C00F2BD0E1
:1045B00018EE101A18EE900A00F0FEF800EE100A3D
:1045C00010EE100A6FEAD05010F0FF0F04BFBDECE0
:1045D000028B10BD18EE900A00F0004110EE100A98
:1045E00000F00040814204BFBDEC028B10BD18EE0C
:1045F000101A10EE100ABDEC028B61F31E0000EEE3
:10460000900A30EE600A10BD18EE900A4FF07F411C
:10461000B1EB400F1CBF18EE100A5FEA4000C7D193
:104620000120FBF727FFBDEC028BBDE8104000F036
:1046300001B80000DFED020A80EEA00A704700001A
:104640000000000008B5FDF703F8FFF747FBFFF790
:10465000A7F8FFF777F8FFF74FF9FFF77FF9FFF7B4
:10466000CDF9FFF721FAFFF73BFAFFF7F1F8FFF773
:104670000FF92148FDF758FCFFF7F4F91F48FDF743
:1046800053FC3C211E48FDF7A3FD3C211D48FDF7CE
:104690009FFD00211C48FDF761FF04211A48FDF72A
:1046A0005DFF08211848FDF759FF0C211648FDF75A
:1046B00055FF012215491648FEF752FA1548FEF734
:1046C000C7FF1448FEF79AFF3220FCF7AFFA12A09A
:1046D000642300680090022269461048FEF7C7FA7A
:1046E0000A490122491D0D48FEF73AFAFCF750FC31
:1046F000FEF75EFBFCE70000382000205821002078
:104700008020002010210020C8200020020000206E
:10471000A0210020E41F0020A5200000E8210020A7
:104720000EF1020E2EF0030E5EF8044B244204D468
:104730004FEA4102B2F17F4F11D84FEA4003B3F183
:104740007F4F0CD80ED14FEAD07CB2F17F4F0CEBEB
:104750004C0C0CF1020C08BF4CEBD17C04E04FF088
:10476000080C01E04FEAD17C0CEB4C0324FA03F473
:1047700004F00704B4F1040C06D20EEB840CBDE87F
:1047800010404CF0010C6047DFE80CF00708020213
:104790004FF00040A0F5800010BD0846420018BF51
:1047A000D2F1807288BF00F0004010BD4FF0407021
:1047B000E1EE100A704700004FF07F4C3CEA4103E5
:1047C00018BF3CEA400200F062804FF47F0C10F00A
:1047D000004F0CEAD11318BF43F005031CEAD012B6
:1047E00018BF13EA0C0F00F057804FF0004C4CEA52
:1047F00000204CEA0121A3F580339A4210DDB0F18C
:10480000004F23F0020306D3401A43F00203BCBF5B
:10481000404283F001034FEA4000A2F58032ECE70A
:104820004FEA224CBCEB234F08DB884206D31CD056
:10483000A0EB4100C0F1000083F0010340001DD255
:1048400017D40DD0B0FA80FC0CF1010C00FA0CF07A
:10485000A2EB0C42D2F1000C12DB4FEAC37070479E
:104860004FEA437000F00040704713F0020FE5D0AC
:10487000DEE7B2F580324FEA4000EBDD002AE9DDE9
:104880004FEAC21242EA502040EAC370704710B5A6
:10489000FFF746FFEDFFFF3E1CEAD11F02D000F0FC
:1048A00000407047004870470000C07F00061016A7
:1048B00000061016000000000000000001020304C2
:1048C000060708090000000001020304EC48000884
:1048D0000000002050000000000200083C490008D1
:1048E00050000020C02900001C0200080000000049
:1048F00000000000000000000000000000000000B8
:1049000000000000000000000000000000000000A7
:104910000000000000000000000000000000000097
:104920000000000000000000000000000100000086
:0C49300010000000000000000024F40053
:04000005080001C529
:00000001FF
